:100000000C942A000C949D0B0C94D30B0C94090CAB
:100010000C9447000C9447000C9447000C94470044
:100020000C9447000C9447000C9447000C94470034
:100030000C9447000C9447000C9447000C94470024
:100040000C94C7120C9447000C9447000C94470082
:100050000C94470011241FBECFE5D8E0DEBFCDBF12
:1000600011E0A0E6B0E0E6EEF1E602C005900D92E8
:10007000A03EB107D9F711E0A0EEB1E001C01D929A
:10008000AF3FB107E1F70E9436300C94F1300C9489
:100090000000EF92FF920F93DF93CF93CDB7DEB7BF
:1000A00060970FB6F894DEBF0FBECDBFA82F002318
:1000B00009F461C07E010894E11CF11C88E0F7019D
:1000C00011928A95E9F729833A834B835C836D8388
:1000D0007E83AF83988780E2801BE82FFF27E7FDB0
:1000E000F0954D815E816F817885181684F01D86AC
:1000F0001E861F86188A882799278E1B9F0B04C08F
:1001000076956795579547958A95D2F728C0202F01
:10011000332727FD3095DB01CA01022E04C0B695B6
:10012000A795979587950A94D2F78D879E87AF8775
:10013000B88B04C0440F551F661F771FEA95D2F78E
:1001400089819A81AB81BC8104C0B695A7959795AA
:1001500087952A95D2F7482B592B6A2B7B2B4987F9
:100160005A876B877C8729853A854B855C856D85A9
:100170007E85AF8598898A2F60960FB6F894DEBF8A
:100180000FBECDBFCF91DF910F91FF90EF900895FB
:10019000EF92FF920F93DF93CF93CDB7DEB76097C7
:1001A0000FB6F894DEBF0FBECDBFA82F002309F411
:1001B00061C07E010894E11CF11C88E0F7011192F6
:1001C0008A95E9F729833A834B835C836D837E8329
:1001D000AF83988780E2801BE82FFF27E7FDF0952B
:1001E00049815A816B817C81181684F019861A86A0
:1001F0001B861C86882799278E1B9F0B04C0440FE3
:10020000551F661F771F8A95D2F728C0202F3327E6
:1002100027FD3095DB01CA01022E04C0880F991F0B
:10022000AA1FBB1F0A94D2F789879A87AB87BC871E
:1002300004C07695679557954795EA95D2F78D81D5
:100240009E81AF81B88504C0880F991FAA1FBB1F6C
:100250002A95D2F7482B592B6A2B7B2B4D875E872B
:100260006F87788B29853A854B855C856D857E8582
:10027000AF8598898A2F60960FB6F894DEBF0FBEBF
:10028000CDBFCF91DF910F91FF90EF900895EF9246
:10029000FF920F931F937B018C0120E030E040E040
:1002A0005FE40E94A70488238CF0C801B70120E016
:1002B00030E040E05FE40E94BF020E9465059B01C0
:1002C000AC01205030404040504806C0C801B70142
:1002D0000E9465059B01AC01B901CA011F910F91F4
:1002E000FF90EF900895A0E0B0E0E9E7F1E00C9412
:1002F000B130DC012B01FA019C91923008F439C134
:10030000EB018881823008F433C1943069F4843081
:1003100009F02FC111969C9111978981981709F4C2
:1003200028C1A0E6B0E025C1843009F421C18230A3
:10033000A9F4923009F01DC19A01AD0188E0EA01EB
:100340000990AE01E90109929E018150C1F7E201D5
:10035000898111969C918923818308C1923009F487
:1003600007C112962D903C901397EB018A819B81D7
:100370001496AD90BD90CD90DC901797EC80FD80E9
:100380000E811F819101281B390BB90137FF04C071
:1003900066277727621B730B603271050CF061C012
:1003A000121613066CF537014801062E04C0969408
:1003B0008794779467940A94D2F721E030E040E084
:1003C00050E004C0220F331F441F551F6A95D2F717
:1003D00021503040404050402E213F2140235123A6
:1003E000211531054105510521F021E030E040E0C3
:1003F00050E079018A01E628F728082919293CC02C
:10040000232BD1F1260E371E35014601062E04C0DE
:1004100096948794779467940A94D2F721E030E019
:1004200040E050E004C0220F331F441F551F6A955F
:10043000D2F721503040404050402A213B214C21EE
:100440005D21211531054105510521F021E030E004
:1004500040E050E059016A01A628B728C828D928E9
:100460000BC0821593052CF01C01AA24BB24650146
:1004700003C0EE24FF24870111969C91D2011196AE
:100480008C91981709F445C0992339F0A801970178
:100490002A193B094C095D0906C0A60195012E19D0
:1004A0003F09400B510B57FD08C011823382228255
:1004B00024833583468357831DC081E08183338243
:1004C000228288279927DC01821B930BA40BB50B92
:1004D00084839583A683B7830DC0220F331F441FE7
:1004E000551F2483358346835783828193810197E7
:1004F000938382832481358146815781DA01C90142
:100500000197A109B1098F5F9F4FAF4FBF4328F3F8
:100510000BC0918333822282EA0CFB1C0C1D1D1D33
:10052000E482F5820683178383E08083248135810A
:100530004681578157FF1AC0C901AA2797FDA09588
:10054000BA2F81709070A070B0705695479537950E
:100550002795822B932BA42BB52B84839583A6837D
:10056000B78382819381019693838283DF0101C0E7
:10057000D201CD01CDB7DEB7E2E10C94CD30A0E2DF
:10058000B0E0E5ECF2E00C94BD3069837A838B83B4
:100590009C832D833E834F835887E9E0EE2EF12C18
:1005A000EC0EFD1ECE010196B7010E9456078E018A
:1005B0000F5E1F4FCE010596B8010E9456078A892B
:1005C00091E089278A8BC701B801AE01475E5F4F72
:1005D0000E9473010E948106A096E6E00C94D93037
:1005E000A0E2B0E0E6EFF2E00C94BD3069837A83DC
:1005F0008B839C832D833E834F835887F9E0EF2EB6
:10060000F12CEC0EFD1ECE010196B7010E9456079B
:100610008E010F5E1F4FCE010596B8010E9456074E
:10062000C701B801AE01475E5F4F0E9473010E948F
:100630008106A096E6E00C94D930A0E2B0E0E3E2B7
:10064000F3E00C94B13069837A838B839C832D8390
:100650003E834F835887CE010196BE01675F7F4F6F
:100660000E945607CE010596BE016F5E7F4F0E9425
:1006700056079985923088F089898230C8F0943085
:1006800019F4823051F404C0843029F4923081F49A
:1006900080E690E0C6C0923049F420E09A858A89CD
:1006A000981321E02A87CE010996BBC0823049F415
:1006B00020E09A858A89981321E02A8BCE01419601
:1006C000B0C02D843E844F8458886D887E888F8882
:1006D000988CEE24FF248701AA24BB24650140E006
:1006E00050E060E070E0E0E0F0E0C1018170907007
:1006F000892BE9F0E60CF71C081D191D9A01AB01C6
:100700002A0D3B1D4C1D5D1D80E090E0A0E0B0E097
:10071000E614F7040805190520F481E090E0A0E054
:10072000B0E0BA01A901480F591F6A1F7B1FAA0C2C
:10073000BB1CCC1CDD1C97FE08C081E090E0A0E053
:10074000B0E0A82AB92ACA2ADB2A3196E032F1059C
:1007500049F0660C771C881C991C56944794379472
:100760002794C3CFFA85EA892B893C898B859C85A0
:10077000280F391F2E5F3F4F17C0CA01817090703C
:10078000892B61F016950795F794E79480E090E047
:10079000A0E0B0E8E82AF92A0A2B1B2B769567958A
:1007A000579547952F5F3F4F77FDE7CF0CC0440F1C
:1007B000551F661F771F17FD4160EE0CFF1C001FC1
:1007C000111F21503040403090E0590790E06907F8
:1007D00090E4790760F32B8F3C8FDB01CA018F77A0
:1007E0009070A070B07080349105A105B10561F4DE
:1007F00047FD0AC0E114F1040105110529F0405C30
:100800005F4F6F4F7F4F40781A8EFE1711F081E0D7
:100810008A8F4D8F5E8F6F8F78A383E0898FCE0193
:1008200049960E948106A096E2E10C94CD30A8E1A1
:10083000B0E0EDE1F4E00C94BD3069837A838B8302
:100840009C832D833E834F83588789E0E82EF12CCB
:10085000EC0EFD1ECE010196B7010E9456078E01D7
:100860000F5E1F4FCE010596B8010E94560789857D
:10087000823040F08989823028F0C701B8010E9497
:10088000CE0701C081E06896E6E00C94D930A8E17B
:10089000B0E0EDE4F4E00C94BD3069837A838B839F
:1008A0009C832D833E834F83588789E0E82EF12C6B
:1008B000EC0EFD1ECE010196B7010E9456078E0177
:1008C0000F5E1F4FCE010596B8010E94560789851D
:1008D000823040F08989823028F0C701B8010E9437
:1008E000CE0701C081E06896E6E00C94D930A8E11B
:1008F000B0E0EDE7F4E00C94BD3069837A838B833C
:100900009C832D833E834F83588789E0E82EF12C0A
:10091000EC0EFD1ECE010196B7010E9456078E0116
:100920000F5E1F4FCE010596B8010E9456078985BC
:10093000823040F08989823028F0C701B8010E94D6
:10094000CE0701C08FEF6896E6E00C94D930A8E19D
:10095000B0E0EDEAF4E00C94BD3069837A838B83D8
:100960009C832D833E834F83588789E0E82EF12CAA
:10097000EC0EFD1ECE010196B7010E9456078E01B6
:100980000F5E1F4FCE010596B8010E94560789855C
:10099000823040F08989823028F0C701B8010E9476
:1009A000CE0701C08FEF6896E6E00C94D930A8E13D
:1009B000B0E0EDEDF4E00C94BD3069837A838B8375
:1009C0009C832D833E834F83588789E0E82EF12C4A
:1009D000EC0EFD1ECE010196B7010E9456078E0156
:1009E0000F5E1F4FCE010596B8010E9456078985FC
:1009F000823040F08989823028F0C701B8010E9416
:100A0000CE0701C081E06896E6E00C94D930A8E0FA
:100A1000B0E0EDE0F5E00C94BA309B01AC0183E06E
:100A20008983DA01C9018827B7FD83959927AA2709
:100A3000BB27B82E211531054105510519F482E077
:100A400089833AC08823A9F0203080E0380780E00D
:100A5000480780E8580729F460E070E080E09FECE8
:100A600030C0EE24FF248701E21AF30A040B150BB1
:100A700002C079018A018EE1C82ED12CDC82CB82A2
:100A8000ED82FE820F831887C801B7010E943206EB
:100A900001971816190684F4082E04C0EE0CFF1CEA
:100AA000001F111F0A94D2F7ED82FE820F83188770
:100AB000C81AD90ADC82CB82BA82CE0101960E9482
:100AC00081062896E9E00C94D630ACE0B0E0EBE685
:100AD000F5E00C94C13069837A838B839C83CE01CB
:100AE0000196BE016B5F7F4F0E9456078D81823059
:100AF00061F1823050F1843021F48E81882351F1EC
:100B00002EC02F81388537FD20C06E812F313105F1
:100B10001CF06623F9F023C08EE190E0821B930B5A
:100B200029853A854B855C8504C056954795379550
:100B300027958A95D2F76623B1F050954095309568
:100B400021953F4F4F4F5F4F0EC020E030E040E017
:100B500050E009C02FEF3FEF4FEF5FE704C020E008
:100B600030E040E050E8B901CA012C96E2E00C9474
:100B7000DD30A8E0B0E0EFEBF5E00C94B9307B019C
:100B80008C01611571058105910519F482E0898355
:100B900060C083E089838EE1C82ED12CDC82CB82B9
:100BA000ED82FE820F831887C801B7010E943206CA
:100BB000FC013197F7FF3BC0222733272E1B3F0B49
:100BC00057016801022E04C0D694C794B794A79425
:100BD0000A94D2F740E050E060E070E081E090E0FD
:100BE000A0E0B0E004C0880F991FAA1FBB1F2A9580
:100BF000D2F70197A109B1098E219F21A023B1232A
:100C00000097A105B10521F041E050E060E070E0FF
:100C10004A295B296C297D294D835E836F83788700
:100C20008EE190E08E1B9F0B9C838B8312C03097CC
:100C300081F00E2E04C0EE0CFF1C001F111F0A9441
:100C4000D2F7ED82FE820F831887CE1ADF0ADC828C
:100C5000CB821A82CE0101960E9481062896EAE094
:100C60000C94D530EF92FF920F931F937B018C0170
:100C700080E0E81680E0F80681E0080780E01807C9
:100C800088F48FEFE816F1040105110531F028F022
:100C900088E090E0A0E0B0E017C080E090E0A0E045
:100CA000B0E012C080E0E81680E0F80680E00807B7
:100CB00081E0180728F088E190E0A0E0B0E004C0EF
:100CC00080E190E0A0E0B0E020E230E040E050E0E1
:100CD000281B390B4A0B5B0B04C016950795F7943C
:100CE000E7948A95D2F7F701E859FF4F8081281BD6
:100CF000310941095109C9011F910F91FF90EF90EE
:100D00000895DF92EF92FF920F931F93FC01E4800E
:100D1000F58006811781D1808081823048F480E09F
:100D200090E0A0E1B0E0E82AF92A0A2B1B2BA5C02D
:100D3000843009F49FC0823021F4EE24FF2487011F
:100D400005C0E114F1040105110519F4E0E0F0E03B
:100D500096C0628173819FEF623879070CF05BC0A7
:100D600022E83FEF261B370B2A3131052CF020E01B
:100D700030E040E050E02AC0B801A701022E04C0D4
:100D800076956795579547950A94D2F781E090E05C
:100D9000A0E0B0E004C0880F991FAA1FBB1F2A95CE
:100DA000D2F70197A109B1098E219F21A023B12378
:100DB0000097A105B10521F081E090E0A0E0B0E04E
:100DC0009A01AB01282B392B4A2B5B2BDA01C90185
:100DD0008F779070A070B07080349105A105B10537
:100DE00039F427FF09C0205C3F4F4F4F5F4F04C0CD
:100DF000215C3F4F4F4F5F4FE0E0F0E02030A0E03C
:100E00003A07A0E04A07A0E45A0710F0E1E0F0E05A
:100E100079018A0127C06038710564F5FB01E1584A
:100E2000FF4FD801C7018F779070A070B0708034E9
:100E30009105A105B10539F4E7FE0DC080E490E00D
:100E4000A0E0B0E004C08FE390E0A0E0B0E0E80EE6
:100E5000F91E0A1F1B1F17FF05C016950795F7946B
:100E6000E794319687E016950795F794E7948A956D
:100E7000D1F705C0EE24FF248701EFEFF0E06E2FDD
:100E8000679566276795902F9F77D794DD24D79431
:100E90008E2F8695492F462B582F5D29B701CA0101
:100EA0001F910F91FF90EF90DF900895FC01DB01FF
:100EB000408151812281622F6F7770E0221F2227AB
:100EC000221F9381892F880F822B282F30E0991FB2
:100ED0009927991F11969C93119721153105A9F512
:100EE000411551056105710511F482E037C082E8B2
:100EF0009FEF13969C938E9312979A01AB0167E034
:100F0000220F331F441F551F6A95D1F783E08C933E
:100F10000DC0220F331F441F551F12968D919C91B7
:100F20001397019713969C938E931297203080E02D
:100F3000380780E0480780E4580758F314962D934B
:100F40003D934D935C93179708952F3F310579F4A6
:100F5000411551056105710519F484E08C930895DC
:100F600064FF03C081E08C9312C01C9210C02F5705
:100F7000304013963C932E93129783E08C9387E036
:100F8000440F551F661F771F8A95D1F7706414961A
:100F90004D935D936D937C93179708951F93DC0198
:100FA000FB019C91923008F447C08081823008F4A4
:100FB00043C0943051F411961C91843099F581818D
:100FC000682F70E0611B71093FC0843021F09230BE
:100FD00031F48230B9F18181882389F12DC01196D5
:100FE0001C9111978230F1F081811817D9F4129673
:100FF0002D913C911397828193818217930794F0EE
:1010000028173907BCF014968D919D910D90BC91D5
:10101000A02D2481358146815781281739074A0739
:101020005B0718F4112341F00AC082179307A40745
:10103000B50740F4112319F061E070E005C06FEFCF
:101040007FEF02C060E070E0CB011F910895DF9355
:10105000CF93CDB7DEB7AFE5B0E0EFE5F0E080814C
:1010600080688C93CF91DF910895DF93CF93CDB7B4
:10107000DEB7AFE5B0E0EFE5F0E080818F778C93ED
:10108000CF91DF910895DF93CF93CDB7DEB72A9745
:101090000FB6F894DEBF0FBECDBF9B838A83198243
:1010A0008A819B81009709F4FDC08A819B81FC01A4
:1010B00032968081883509F061C08A819B81FC016C
:1010C00032968181282F30E03A87298789859A8551
:1010D0008130910521F129853A85223031052CF4A2
:1010E00089859A85009761F047C029853A85223025
:1010F000310521F189859A858330910571F13CC0D4
:10110000A5E5B0E0E5E5F0E080818B7F8C93A5E577
:10111000B0E0E5E5F0E0808188608C932FC0A5E524
:10112000B0E0E5E5F0E0808184608C93A5E5B0E077
:10113000E5E5F0E0808188608C9320C0A5E5B0E013
:10114000E5E5F0E080818B7F8C93A5E5B0E0E5E5F7
:10115000F0E08081877F8C9311C0A5E5B0E0E5E5E4
:10116000F0E0808184608C93A5E5B0E0E5E5F0E0F7
:101170008081877F8C9302C084E08983EA81FB8130
:101180008081883509F05FC0EA81FB818181282F49
:1011900030E038872F838F8198858130910521F148
:1011A0002F813885223031052CF48F819885009766
:1011B00061F047C02F8138852230310521F18F81C0
:1011C00098858330910571F13CC0A5E5B0E0E5E577
:1011D000F0E080818E7F8C93A5E5B0E0E5E5F0E05E
:1011E000808182608C932FC0A5E5B0E0E5E5F0E05A
:1011F000808181608C93A5E5B0E0E5E5F0E0808139
:1012000082608C9320C0A5E5B0E0E5E5F0E0808148
:101210008E7F8C93A5E5B0E0E5E5F0E080818D7FE1
:101220008C9311C0A5E5B0E0E5E5F0E08081816038
:101230008C93A5E5B0E0E5E5F0E080818D7F8C93AF
:1012400002C084E089838A819B81FC01349680817D
:10125000883529F58A819B81FC0134968181282F6C
:1012600030E03E832D838D819E81009731F02D816A
:101270003E812130310549F010C0A4E5B0E0E4E53D
:10128000F0E080818F7B8C930AC0A4E5B0E0E4E5B8
:10129000F0E0808180648C9302C084E0898339818E
:1012A0003C8302C082E08C838C812A960FB6F8942E
:1012B000DEBF0FBECDBFCF91DF910895DF93CF93F7
:1012C000CDB7DEB727970FB6F894DEBF0FBECDBF00
:1012D0008A836B8319828B81823008F0CCC08A812B
:1012E000282F30E03F832E838E819F8181309105AE
:1012F00009F495C02E813F812230310534F48E816E
:101300009F81009709F461C0B3C02E813F812230D4
:10131000310531F08E819F818330910561F1A8C044
:10132000A5E5B0E0E5E5F0E08081482F8B81282F2E
:1013300030E081E090E002C0880F991F2A95E2F723
:10134000809584238C93A5E5B0E0E5E5F0E080810D
:10135000482F8B81882F90E09C012F5F3F4F81E0C9
:1013600090E0022E02C0880F991F0A94E2F7809540
:1013700084238C93A7C0A5E5B0E0E5E5F0E080818B
:10138000482F8B81282F30E081E090E002C0880F49
:10139000991F2A95E2F7842B8C93A5E5B0E0E5E54B
:1013A000F0E08081482F8B81882F90E09C012F5F97
:1013B0003F4F81E090E0022E02C0880F991F0A94EF
:1013C000E2F7809584238C937DC0A5E5B0E0E5E548
:1013D000F0E08081482F8B81282F30E081E090E081
:1013E00002C0880F991F2A95E2F7809584238C9379
:1013F000A5E5B0E0E5E5F0E08081482F8B81882FFE
:1014000090E09C012F5F3F4F81E090E0022E02C0F0
:10141000880F991F0A94E2F7842B8C9353C0A5E59B
:10142000B0E0E5E5F0E08081482F8B81282F30E0A7
:1014300081E090E002C0880F991F2A95E2F7842B83
:101440008C93A5E5B0E0E5E5F0E08081482F8B8145
:10145000882F90E09C012F5F3F4F81E090E0022EAB
:1014600002C0880F991F0A94E2F7842B8C932AC03C
:1014700084E0898327C08B81823011F58A81282FEF
:1014800030E03D832C838C819D81009731F02C814D
:101490003D812130310549F010C0A4E5B0E0E4E51C
:1014A000F0E080818F7B8C930DC0A4E5B0E0E4E593
:1014B000F0E0808180648C9305C084E0898302C061
:1014C00083E08983898127960FB6F894DEBF0FBE2B
:1014D000CDBFCF91DF910895DF93CF9300D000D09F
:1014E000CDB7DEB78A8319828A81282F30E03C830A
:1014F0002B838B819C818130910589F02B813C81EC
:1015000022303105A1F08B819C810097C1F4ABE5BD
:10151000B0E0EBE5F0E0808180648C9312C0ABE535
:10152000B0E0EBE5F0E0808180688C930AC0ABE529
:10153000B0E0EBE5F0E0808180628C9302C083E054
:10154000898389810F900F900F900F90CF91DF9139
:101550000895DF93CF9300D000D0CDB7DEB78A8354
:1015600019828A81282F30E03C832B838B819C81D8
:101570008130910589F02B813C8122303105A1F029
:101580008B819C810097C1F4ABE5B0E0EBE5F0E026
:1015900080818F7B8C9312C0ABE5B0E0EBE5F0E08F
:1015A00080818F778C930AC0ABE5B0E0EBE5F0E08B
:1015B00080818F7D8C9302C083E0898389810F9025
:1015C0000F900F900F90CF91DF910895DF93CF93FD
:1015D00000D000D0CDB7DEB78A8319828A81282F48
:1015E00030E03C832B838B819C818130910589F095
:1015F0002B813C8122303105A1F08B819C810097A9
:10160000C1F4AAE5B0E0EAE5F0E0808180648C9363
:1016100012C0AAE5B0E0EAE5F0E0808180688C9332
:101620000AC0AAE5B0E0EAE5F0E0808180628C9330
:1016300002C083E0898389810F900F900F900F90F3
:10164000CF91DF910895DF93CF9300D000D000D0E9
:10165000CDB7DEB78A837C836B8319828A81282F7A
:1016600030E03E832D838D819E8181309105A9F0EC
:101670002D813E8122303105D1F08D819E810097F0
:1016800009F5EBE5F0E0808182958695869583707B
:101690008170EB81FC81808317C0EBE5F0E08081F5
:1016A000881F8827881FEB81FC8180830DC0EBE5B4
:1016B000F0E080818295869587708170EB81FC8156
:1016C000808302C083E08983898126960FB6F894CF
:1016D000DEBF0FBECDBFCF91DF910895DF93CF93D3
:1016E00000D000D00F92CDB7DEB79B838A836C8386
:1016F00019828A819B810097A9F08C81833078F4CC
:101700008C81882F90E0880F991FFC01E052FE4FDA
:101710008A819B819183808389818D8305C083E049
:101720008D8302C082E08D838D810F900F900F908A
:101730000F900F90CF91DF9108951F920F920FB6E7
:101740000F9211242F933F934F935F936F937F9347
:101750008F939F93AF93BF93EF93FF93DF93CF93B9
:10176000CDB7DEB78091E0019091E101009741F0A3
:10177000E091E001F091E101099580E00E94E60A24
:10178000CF91DF91FF91EF91BF91AF919F918F9199
:101790007F916F915F914F913F912F910F900FBE6D
:1017A0000F901F9018951F920F920FB60F92112451
:1017B0002F933F934F935F936F937F938F939F9359
:1017C000AF93BF93EF93FF93DF93CF93CDB7DEB784
:1017D0008091E2019091E301009741F0E091E201F4
:1017E000F091E301099581E00E94E60ACF91DF9133
:1017F000FF91EF91BF91AF919F918F917F916F91E9
:101800005F914F913F912F910F900FBE0F901F90BE
:1018100018951F920F920FB60F9211242F933F939A
:101820004F935F936F937F938F939F93AF93BF93E8
:10183000EF93FF93DF93CF93CDB7DEB78091E401B1
:101840009091E501009741F0E091E401F091E5010C
:10185000099582E00E94E60ACF91DF91FF91EF9116
:10186000BF91AF919F918F917F916F915F914F91B8
:101870003F912F910F900FBE0F901F901895DF93FF
:10188000CF930F92CDB7DEB781E08983EAE3F0E032
:101890008EEF8083E7E3F0E08FEF8083E4E3F0E016
:1018A0008FEF8083E1E3F0E082EA8083EBE3F0E016
:1018B0001082E8E3F0E01082E5E3F0E01082E2E37A
:1018C000F0E084E18083198289810F90CF91DF91CC
:1018D0000895DF93CF9300D000D00F92CDB7DEB73D
:1018E0008A836B8381E089838A818430A0F58A8131
:1018F000282F30E03D832C838C819D8181309105A0
:10190000D1F02C813D81223031052CF48C819D81D8
:10191000009761F01EC02C813D812230310581F09D
:101920008C819D818330910581F013C0EAE3F0E062
:101930008B8180830EC0E7E3F0E08B81808309C058
:10194000E4E3F0E08B81808304C0E1E3F0E08B818D
:101950008083198202C083E0898389810F900F9070
:101960000F900F900F90CF91DF910895DF93CF9359
:1019700000D000D00F92CDB7DEB78A836B8381E0B1
:1019800089838A818430A0F58A81282F30E03D83C5
:101990002C838C819D8181309105D1F02C813D81FA
:1019A000223031052CF48C819D81009761F01EC09E
:1019B0002C813D812230310581F08C819D818330E5
:1019C000910581F013C0EBE3F0E08B8180830EC0C2
:1019D000E8E3F0E08B81808309C0E5E3F0E08B81F0
:1019E000808304C0E2E3F0E08B818083198202C02F
:1019F00083E0898389810F900F900F900F900F9053
:101A0000CF91DF910895DF93CF9300D000D000D025
:101A1000CDB7DEB78A837C836B8381E089838B813A
:101A20009C81009709F442C08A818430E0F58A8164
:101A3000282F30E03E832D838D819E81813091055A
:101A4000E1F02D813E81223031052CF48D819E8183
:101A5000009761F026C02D813E8122303105A1F032
:101A60008D819E8183309105B1F01BC0E9E3F0E0E8
:101A70008081EB81FC81808314C0E6E3F0E080810B
:101A8000EB81FC8180830DC0E3E3F0E08081EB819A
:101A9000FC81808306C0E0E3F0E08081EB81FC8183
:101AA0008083198205C083E0898302C082E0898334
:101AB000898126960FB6F894DEBF0FBECDBFCF91B9
:101AC000DF910895DF93CF9300D000D0CDB7DEB77C
:101AD0008A8381E089838A81843008F040C08A81CA
:101AE000282F30E03C832B838B819C8181309105B2
:101AF000E9F02B813C81223031052CF48B819C81D3
:101B0000009761F02AC02B813C8122303105B1F071
:101B10008B819C8183309105C9F01FC0ABE3B0E09D
:101B2000EBE3F0E0808180958C9317C0A8E3B0E0F0
:101B3000E8E3F0E0808180958C930FC0A5E3B0E0EE
:101B4000E5E3F0E0808180958C9307C0A2E3B0E0EC
:101B5000E2E3F0E0808180958C93198202C083E0FB
:101B6000898389810F900F900F900F90CF91DF9113
:101B70000895DF93CF9300D000D000D0CDB7DEB76B
:101B80008A836B834C8381E089838A81843008F067
:101B9000D0C08B81883008F0CCC08C81823008F0B6
:101BA000C8C08A81282F30E03E832D836D817E81DD
:101BB0006130710509F441C08D819E8182309105AB
:101BC00034F42D813E812115310571F0B0C06D8155
:101BD0007E816230710509F459C08D819E81833008
:101BE000910509F47CC0A3C0AAE3B0E0EAE3F0E009
:101BF0008081482F8B81282F30E081E090E002C067
:101C0000880F991F2A95E2F7809584238C93AAE385
:101C1000B0E0EAE3F0E08081482F8C81282F30E0AB
:101C20008B81882F90E0B90102C0660F771F8A95DB
:101C3000E2F7CB01842B8C937AC0A7E3B0E0E7E313
:101C4000F0E08081482F8B81282F30E081E090E008
:101C500002C0880F991F2A95E2F7809584238C9300
:101C6000A7E3B0E0E7E3F0E08081482F8C81282FE4
:101C700030E08B81882F90E0B90102C0660F771F9A
:101C80008A95E2F7CB01842B8C9351C0A4E3B0E09A
:101C9000E4E3F0E08081482F8B81282F30E081E061
:101CA00090E002C0880F991F2A95E2F7809584235F
:101CB0008C93A4E3B0E0E4E3F0E08081482F8C81D2
:101CC000282F30E08B81882F90E0B90102C0660F89
:101CD000771F8A95E2F7CB01842B8C9328C0A1E370
:101CE000B0E0E1E3F0E08081482F8B81282F30E0E5
:101CF00081E090E002C0880F991F2A95E2F7809555
:101D000084238C93A1E3B0E0E1E3F0E08081482FED
:101D10008C81282F30E08B81882F90E0B90102C0A0
:101D2000660F771F8A95E2F7CB01842B8C9319827B
:101D300002C083E08983898126960FB6F894DEBFBE
:101D40000FBECDBFCF91DF910895DF93CF9300D029
:101D500000D000D0CDB7DEB78A836B834C8381E09F
:101D600089838A81843008F0D0C08B81883008F064
:101D7000CCC08C81823008F0C8C08A81282F30E026
:101D80003E832D836D817E816130710509F441C0F0
:101D90008D819E818230910534F42D813E81211503
:101DA000310571F0B0C06D817E816230710509F43A
:101DB00059C08D819E818330910509F47CC0A3C0F8
:101DC000ABE3B0E0EBE3F0E08081482F8B81282F7C
:101DD00030E081E090E002C0880F991F2A95E2F779
:101DE000809584238C93ABE3B0E0EBE3F0E080815B
:101DF000482F8C81282F30E08B81882F90E0B9010B
:101E000002C0660F771F8A95E2F7CB01842B8C9373
:101E10007AC0A8E3B0E0E8E3F0E08081482F8B814E
:101E2000282F30E081E090E002C0880F991F2A95AA
:101E3000E2F7809584238C93A8E3B0E0E8E3F0E038
:101E40008081482F8C81282F30E08B81882F90E073
:101E5000B90102C0660F771F8A95E2F7CB01842B88
:101E60008C9351C0A5E3B0E0E5E3F0E08081482F1A
:101E70008B81282F30E081E090E002C0880F991F0D
:101E80002A95E2F7809584238C93A5E3B0E0E5E3FF
:101E9000F0E08081482F8C81282F30E08B81882FC3
:101EA00090E0B90102C0660F771F8A95E2F7CB0177
:101EB000842B8C9328C0A2E3B0E0E2E3F0E08081C1
:101EC000482F8B81282F30E081E090E002C0880FFE
:101ED000991F2A95E2F7809584238C93A2E3B0E0C2
:101EE000E2E3F0E08081482F8C81282F30E08B8165
:101EF000882F90E0B90102C0660F771F8A95E2F73C
:101F0000CB01842B8C93198202C083E08983898161
:101F100026960FB6F894DEBF0FBECDBFCF91DF91EE
:101F20000895DF93CF93CDB7DEB727970FB6F89418
:101F3000DEBF0FBECDBF8A836B835D834C8381E0A0
:101F400089838C819D81009709F47DC08A818430CA
:101F500008F076C08B81883008F072C08A81282F03
:101F600030E03F832E834E815F814130510559F12E
:101F70008E819F818230910534F42E813F8121151D
:101F8000310569F05BC04E815F814230510579F1C6
:101F90008E819F818330910509F43DC04FC0E9E3F4
:101FA000F0E08081282F30E08B81882F90E0A9011C
:101FB00002C0559547958A95E2F7CA018170EC8178
:101FC000FD8180833BC0E6E3F0E08081282F30E094
:101FD0008B81882F90E0A90102C0559547958A957D
:101FE000E2F7CA018170EC81FD81808327C0E3E3C1
:101FF000F0E08081282F30E08B81882F90E0A901CC
:1020000002C0559547958A95E2F7CA018170EC8127
:10201000FD81808313C0E0E3F0E08081282F30E071
:102020008B81882F90E0A90102C0559547958A952C
:10203000E2F7CA018170EC81FD818083198205C0BD
:1020400083E0898302C082E08983898127960FB665
:10205000F894DEBF0FBECDBFCF91DF910895DF931F
:10206000CF9300D000D00F92CDB7DEB78A836B83B9
:1020700081E089838A81843008F070C08A81282FAA
:1020800030E03D832C838C819D818130910549F125
:102090002C813D81223031052CF48C819D8100976B
:1020A00061F05AC02C813D812230310571F18C8163
:1020B0009D8183309105E9F14FC0ABE3B0E0EBE3E4
:1020C000F0E08081482F8B81282F30E081E090E084
:1020D000022E02C0880F991F0A94E2F784278C937E
:1020E0003BC0A8E3B0E0E8E3F0E08081482F8B81BB
:1020F000282F30E081E090E0022E02C0880F991F67
:102100000A94E2F784278C9327C0A5E3B0E0E5E3C7
:10211000F0E08081482F8B81282F30E081E090E033
:10212000022E02C0880F991F0A94E2F784278C932D
:1021300013C0A2E3B0E0E2E3F0E08081482F8B819E
:10214000282F30E081E090E0022E02C0880F991F16
:102150000A94E2F784278C93198202C083E0898372
:1021600089810F900F900F900F900F90CF91DF917A
:102170000895DF93CF930F92CDB7DEB71982A7E210
:10218000B0E0E7E2F0E0808180648C93A7E2B0E009
:10219000E7E2F0E080818F778C93A7E2B0E0E7E29E
:1021A000F0E080818F7D8C93A6E2B0E0E6E2F0E083
:1021B0008081887F8C93A6E2B0E0E6E2F0E0808147
:1021C00087608C93A6E2B0E0E6E2F0E08081806870
:1021D0008C93A6E2B0E0E6E2F0E08081877F8C930A
:1021E00089810F90CF91DF910895DF93CF930F9264
:1021F000CDB7DEB71982A6E2B0E0E6E2F0E080817A
:1022000080688C9389810F90CF91DF910895DF933F
:10221000CF930F92CDB7DEB71982A6E2B0E0E6E227
:10222000F0E080818F778C9389810F90CF91DF913F
:102230000895DF93CF930F92CDB7DEB71982A6E250
:10224000B0E0E6E2F0E0808188608C9389810F90B5
:10225000CF91DF910895DF93CF930F92CDB7DEB783
:102260001982A6E2B0E0E6E2F0E08081877F8C93FD
:1022700089810F90CF91DF910895DF93CF9300D0A4
:10228000CDB7DEB78A8319828A81883080F4A6E2CE
:10229000B0E0E6E2F0E08081887F8C93A6E2B0E0D7
:1022A000E6E2F0E090818A81892B8C9302C085E080
:1022B000898389810F900F90CF91DF910895DF93EB
:1022C000CF93CDB7DEB728970FB6F894DEBF0FBE19
:1022D000CDBF8E8378876F831D8219821A821B82FD
:1022E0001C828F819885009709F46FC08091EA0164
:1022F000882309F067C081E08093EA01A7E2B0E09B
:10230000E7E2F0E08081807E8C93A7E2B0E0E7E234
:10231000F0E090818E81892B8C93A6E2B0E0E6E21A
:10232000F0E0808180648C930BC089819A81AB81BD
:10233000BC810196A11DB11D89839A83AB83BC83A7
:10234000E6E2F0E0808182958F70882F90E08170C6
:102350009070009761F489819A81AB81BC8180354E
:1023600023EC920720E0A20720E0B207F0F2898177
:102370009A81AB81BC81803523EC920720E0A207D3
:1023800020E0B20719F487E08D8319C0A6E2B0E01F
:10239000E6E2F0E0808180618C93E4E2F0E080810D
:1023A000282F30E0E5E2F0E08081882F90E0982F40
:1023B0008827822B932BEF81F8859183808310925D
:1023C000EA0105C088E08D8302C082E08D838D81A3
:1023D00028960FB6F894DEBF0FBECDBFCF91DF9128
:1023E0000895DF93CF9300D000D000D0CDB7DEB7F3
:1023F0008A837C836B835E834D8319828B819C816E
:102400000097D1F18D819E810097B1F18091EA0111
:10241000882379F581E08093EA011092EB018B81AA
:102420009C819093E7018093E6018D819E8190933A
:10243000E9018093E801A7E2B0E0E7E2F0E0808103
:10244000807E8C93A7E2B0E0E7E2F0E090818A81A1
:10245000892B8C93A6E2B0E0E6E2F0E08081806414
:102460008C93A6E2B0E0E6E2F0E0808188608C9395
:1024700005C088E0898302C082E08983898126962D
:102480000FB6F894DEBF0FBECDBFCF91DF91089598
:10249000DF93CF9300D00F92CDB7DEB79B838A83B3
:1024A00019828A819B81009709F468C0EA81FB81C7
:1024B00080819181009709F461C0EA81FB8182816A
:1024C0009381009709F45AC0EA81FB818581968146
:1024D000009709F453C08091EA01882309F04BC0AA
:1024E00081E08093EA01EA81FB818281938190936C
:1024F000E7018093E601EA81FB81808191819093DD
:10250000ED018093EC01EA81FB8184818093EE01EF
:10251000EA81FB81858196819093E9018093E801AE
:102520001092EF01A7E2B0E0E7E2F0E08081807E68
:102530008C93A7E2B0E0E7E2F0E040812091EC016B
:102540003091ED018091EF01882F90E0F901E80FC3
:10255000F91F8081842B8C93A6E2B0E0E6E2F0E0E4
:10256000808180648C93A6E2B0E0E6E2F0E08081B6
:1025700088608C9305C088E0898302C082E08983EB
:1025800089810F900F900F90CF91DF9108951F9246
:102590000F920FB60F9211242F933F934F935F9397
:1025A0006F937F938F939F93AF93BF93EF93FF931B
:1025B000DF93CF93CDB7DEB78091EB01882319F578
:1025C000A091E601B091E701E4E2F0E08081282FDC
:1025D00030E0E5E2F0E08081882F90E0982F8827B6
:1025E000822B932B8D939C931092EA01E091E8014A
:1025F000F091E9010995A6E2B0E0E6E2F0E0808121
:10260000877F8C9350C0A091E601B091E701E4E28E
:10261000F0E08081282F30E0E5E2F0E08081882F33
:1026200090E0982F8827822B932B11969C938E9362
:102630008091EF018F5F8093EF019091EF01809186
:10264000EE01981779F41092EA01E091E801F09117
:10265000E9010995A6E2B0E0E6E2F0E08081877F3B
:102660008C9321C0A7E2B0E0E7E2F0E08081807EB9
:102670008C93A7E2B0E0E7E2F0E040812091EC012A
:102680003091ED018091EF01882F90E0F901E80F82
:10269000F91F8081842B8C93A6E2B0E0E6E2F0E0A3
:1026A000808180648C93CF91DF91FF91EF91BF91F6
:1026B000AF919F918F917F916F915F914F913F91DA
:1026C0002F910F900FBE0F901F901895DF93CF930F
:1026D00000D000D00F92CDB7DEB79C838B8381E012
:1026E0008A838B819C81009709F462C019825BC048
:1026F0008981282F30E0C901880F991F280F391FC1
:102700008B819C81FC01E20FF31F40818981282F7E
:1027100030E0C901880F991F280F391F8B819C81D8
:10272000FC01E20FF31F9181842F692F40E00E948A
:10273000B90D8A838981282F30E0C901880F991F3C
:10274000280F391F8B819C81FC01E20FF31F508100
:102750008981282F30E0C901880F991F280F391F60
:102760008B819C81FC01E20FF31F41818981282F1D
:1027700030E0C901880F991F280F391F8B819C8178
:10278000FC01E20FF31F9281852F642F492F0E94D5
:10279000A50E8A838A81882319F08A818D830CC0D3
:1027A00089818F5F89838981882309F4A1CF02C041
:1027B00082E08A838A818D838D810F900F900F90A4
:1027C0000F900F90CF91DF910895DF93CF9300D0BA
:1027D00000D00F92CDB7DEB79B838A837D836C8355
:1027E00081E089838A819B81009791F08C819D8112
:1027F000009771F0EA81FB818081EA81FB81918100
:102800002C813D81692FA9010E94910F898302C00B
:1028100082E0898389810F900F900F900F900F9025
:10282000CF91DF910895DF93CF93CDB7DEB7279790
:102830000FB6F894DEBF0FBECDBF81E08E831A8243
:102840001B821C821D8282E060E041E00E94B90D83
:10285000282F30E040E050E08A819B81AC81BD812F
:10286000822B932BA42BB52B8A839B83AC83BD83B4
:1028700082E061E041E00E94B90D882F90E0880F6E
:10288000991F880F991F880F991F9C01442737FDB6
:102890004095542F8A819B81AC81BD81822B932BE3
:1028A000A42BB52B8A839B83AC83BD8382E062E03B
:1028B00041E00E94B90D882F90E0002496958795FD
:1028C0000794969587950794982F802D9C0144270F
:1028D00037FD4095542F8A819B81AC81BD81822B2D
:1028E000932BA42BB52B8A839B83AC83BD8382E07F
:1028F00063E041E00E94B90D882F90E0A0E0B0E0D5
:102900009C01AD01012E19E0220F331F441F551FFA
:102910001A95D1F7102D8A819B81AC81BD81822BC4
:10292000932BA42BB52B8A839B83AC83BD8382E03E
:1029300064E041E00E94B90D882F90E0A0E0B0E093
:102940009C01AD01012E1CE0220F331F441F551FB7
:102950001A95D1F7102D8A819B81AC81BD81822B84
:10296000932BA42BB52B8A839B83AC83BD8382E0FE
:1029700065E041E00E94B90D882F90E0A0E0B0E052
:102980009C01AD01012E1FE0220F331F441F551F74
:102990001A95D1F7102D8A819B81AC81BD81822B44
:1029A000932BA42BB52B8A839B83AC83BD8382E0BE
:1029B00066E041E00E94B90D882F90E0A0E0B0E011
:1029C0009C01AD01012E12E1220F331F441F551F40
:1029D0001A95D1F7102D8A819B81AC81BD81822B04
:1029E000932BA42BB52B8A839B83AC83BD83198245
:1029F0001DC08981282F30E08A819B81AC81BD81F7
:102A0000022E04C0B695A795979587950A94D2F79C
:102A100087709070A070B0700097A105B10519F093
:102A200081E08F8309C089818D5F898389818531A8
:102A300000F31E828E818F838F8127960FB6F894C4
:102A4000DEBF0FBECDBFCF91DF910895DF93CF934F
:102A5000CDB7DEB728970FB6F894DEBF0FBECDBF57
:102A60008F8381E08E838F818A3008F049C11A827A
:102A70001B821C821D828F81882F90E0FC01EF5801
:102A8000FE4F8081982F917082E060E0492F0E9474
:102A9000A50E282F30E040E050E08A819B81AC8178
:102AA000BD81822B932BA42BB52B8A839B83AC8374
:102AB000BD838F81882F90E0FC01EF58FE4F80810D
:102AC0008695982F917082E061E0492F0E94A50EB3
:102AD000882F90E0880F991F880F991F880F991FE2
:102AE0009C01442737FD4095542F8A819B81AC81FE
:102AF000BD81822B932BA42BB52B8A839B83AC8324
:102B0000BD838F81882F90E0FC01EF58FE4F8081BC
:102B100086958695982F917082E062E0492F0E94F9
:102B2000A50E882F90E0002496958795079496959A
:102B300087950794982F802D9C01442737FD409559
:102B4000542F8A819B81AC81BD81822B932BA42B36
:102B5000B52B8A839B83AC83BD838F81882F90E0C4
:102B6000FC01EF58FE4F8081869586958695982FBB
:102B7000917082E063E0492F0E94A50E882F90E0BB
:102B8000A0E0B0E09C01AD01012E19E0220F331F3F
:102B9000441F551F1A95D1F7102D8A819B81AC8156
:102BA000BD81822B932BA42BB52B8A839B83AC8373
:102BB000BD838F81882F90E0FC01EF58FE4F80810C
:102BC00082958F70982F917082E064E0492F0E9467
:102BD000A50E882F90E0A0E0B0E09C01AD01012E91
:102BE0001CE0220F331F441F551F1A95D1F7102DDB
:102BF0008A819B81AC81BD81822B932BA42BB52B29
:102C00008A839B83AC83BD838F81882F90E0FC01F6
:102C1000EF58FE4F8081829586958770982F91702E
:102C200082E065E0492F0E94A50E882F90E0A0E089
:102C3000B0E09C01AD01012E1FE0220F331F441FA5
:102C4000551F1A95D1F7102D8A819B81AC81BD81CA
:102C5000822B932BA42BB52B8A839B83AC83BD83C0
:102C60008F81882F90E0FC01EF58FE4F8081829584
:102C7000869586958370982F917082E066E0492F43
:102C80000E94A50E882F90E0A0E0B0E09C01AD016D
:102C9000012E12E1220F331F441F551F1A95D1F741
:102CA000102D8A819B81AC81BD81822B932BA42B1B
:102CB000B52B8A839B83AC83BD8319821DC0898118
:102CC000282F30E08A819B81AC81BD81022E04C017
:102CD000B695A795979587950A94D2F787709070C7
:102CE000A070B0700097A105B10519F081E0888748
:102CF0000CC089818D5F89838981853100F302C091
:102D000083E08E831E828E818887888528960FB601
:102D1000F894DEBF0FBECDBFCF91DF910895DF9352
:102D2000CF930F92CDB7DEB781E089831982898175
:102D30000F90CF91DF910895DF93CF930F92CDB78E
:102D4000DEB781E08983198289810F90CF91DF916D
:102D50000895DF93CF930F92CDB7DEB781E08983DB
:102D6000198289810F90CF91DF910895DF93CF93DE
:102D70000F92CDB7DEB781E08983198289810F90E8
:102D8000CF91DF910895DF93CF93CDB7DEB727972B
:102D90000FB6F894DEBF0FBECDBF81E08E831A82DE
:102DA0001B821C821D8282E060E040E00E94A50E32
:102DB000282F30E040E050E08A819B81AC81BD81CA
:102DC000822B932BA42BB52B8A839B83AC83BD834F
:102DD00082E061E040E00E94A50E882F90E0880F1D
:102DE000991F880F991F880F991F9C01442737FD51
:102DF0004095542F8A819B81AC81BD81822B932B7E
:102E0000A42BB52B8A839B83AC83BD8382E062E0D5
:102E100040E00E94A50E882F90E0002496958795AB
:102E20000794969587950794982F802D9C014427A9
:102E300037FD4095542F8A819B81AC81BD81822BC7
:102E4000932BA42BB52B8A839B83AC83BD8382E019
:102E500063E040E00E94A50E882F90E0A0E0B0E083
:102E60009C01AD01012E19E0220F331F441F551F95
:102E70001A95D1F7102D8A819B81AC81BD81822B5F
:102E8000932BA42BB52B8A839B83AC83BD8382E0D9
:102E900064E040E00E94A50E882F90E0A0E0B0E042
:102EA0009C01AD01012E1CE0220F331F441F551F52
:102EB0001A95D1F7102D8A819B81AC81BD81822B1F
:102EC000932BA42BB52B8A839B83AC83BD8382E099
:102ED00065E040E00E94A50E882F90E0A0E0B0E001
:102EE0009C01AD01012E1FE0220F331F441F551F0F
:102EF0001A95D1F7102D8A819B81AC81BD81822BDF
:102F0000932BA42BB52B8A839B83AC83BD8382E058
:102F100066E040E00E94A50E882F90E0A0E0B0E0BF
:102F20009C01AD01012E12E1220F331F441F551FDA
:102F30001A95D1F7102D8A819B81AC81BD81822B9E
:102F4000932BA42BB52B8A839B83AC83BD831982DF
:102F50001DC08981282F30E08A819B81AC81BD8191
:102F6000022E04C0B695A795979587950A94D2F737
:102F700087709070A070B0700097A105B10519F02E
:102F800081E08F8309C089818D5F89838981853143
:102F900000F31E828E818F838F8127960FB6F8945F
:102FA000DEBF0FBECDBFCF91DF910895EF92FF92AC
:102FB0000F931F93DF93CF93CDB7DEB72B970FB649
:102FC000F894DEBF0FBECDBF998788877B876A875D
:102FD0001D82E885F9858181282F30E088EE93E015
:102FE000AC01249FC001259F900D349F900D1124AA
:102FF0009A838983E885F98580819E012A5F3F4F06
:10300000B9010E945F11E885F98582818130E1F480
:103010008E819F817C0100E010E089819A819C0172
:1030200040E050E0C801B7010E944130DC01CB0113
:10303000072E7AE0B695A795979587957A95D1F75B
:10304000702D9C838B831EC0E885F9858281823038
:10305000B9F48E819F817C0100E010E089819A8122
:103060009C0140E050E0C801B7010E944130DC0102
:10307000CB01892F9A2FAB2FBB279C838B8302C058
:1030800083E08D838B819C812AE030E0B9010E942E
:103090006030CB01EA85FB8580838D812B960FB64E
:1030A000F894DEBF0FBECDBFCF91DF911F910F917E
:1030B000FF90EF900895DF93CF9300D000D00F9250
:1030C000CDB7DEB79C838B8381E08A838B819C8123
:1030D000009709F425C119821EC18981882F90E0CB
:1030E0009C01220F331F220F331F8B819C81FC0117
:1030F000E20FF31F40818981882F90E09C01220F0D
:10310000331F220F331F8B819C81FC01E20FF31FC1
:103110009181842F692F41E00E94B90D8A838981B2
:10312000882F90E09C01220F331F220F331F8B81C9
:103130009C81FC01E20FF31F8281813009F067C09E
:103140008981882F90E09C01220F331F220F331FAB
:103150008B819C81FC01E20FF31F8381813011F58B
:103160008981882F90E09C01220F331F220F331F8B
:103170008B819C81FC01E20FF31F40818981882FA4
:1031800090E09C01220F331F220F331F8B819C8103
:10319000FC01E20FF31F9181842F692F41E00E940F
:1031A000A50EB0C08981882F90E09C01220F331FAB
:1031B000220F331F8B819C81FC01E20FF31F828160
:1031C000882311F58981882F90E09C01220F331FFD
:1031D000220F331F8B819C81FC01E20FF31F408182
:1031E0008981882F90E09C01220F331F220F331F0B
:1031F0008B819C81FC01E20FF31F9181842F692F49
:1032000040E00E94A50E7EC083E08D838DC0898141
:10321000882F90E09C01220F331F220F331F8B81D8
:103220009C81FC01E20FF31F8281882309F067C0B3
:103230008981882F90E09C01220F331F220F331FBA
:103240008B819C81FC01E20FF31F8381813011F59A
:103250008981882F90E09C01220F331F220F331F9A
:103260008B819C81FC01E20FF31F40818981882FB3
:1032700090E09C01220F331F220F331F8B819C8112
:10328000FC01E20FF31F9181842F692F40E00E941F
:10329000A50E38C08981882F90E09C01220F331F32
:1032A000220F331F8B819C81FC01E20FF31F82816F
:1032B000882311F58981882F90E09C01220F331F0C
:1032C000220F331F8B819C81FC01E20FF31F408191
:1032D0008981882F90E09C01220F331F220F331F1A
:1032E0008B819C81FC01E20FF31F9181842F692F58
:1032F00041E00E94A50E06C083E08D8315C083E0E7
:103300008D8312C08A81882319F08A818D830CC035
:1033100089818F5F89838981833008F4DECE02C082
:1033200082E08A838A818D838D810F900F900F9028
:103330000F900F90CF91DF910895DF93CF9300D03E
:1033400000D0CDB7DEB79B838A8381E089838A81F1
:103350009B81009719F1EA81FB818281813059F4C8
:10336000EA81FB818081EA81FB819181692F41E0C3
:103370000E94A50E15C0EA81FB818281882359F441
:10338000EA81FB818081EA81FB819181692F40E0A4
:103390000E94A50E05C083E08C8304C082E089836F
:1033A00089818C838C810F900F900F900F90CF911B
:1033B000DF910895DF93CF9300D000D0CDB7DEB773
:1033C0009B838A8381E089838A819B81009719F19D
:1033D000EA81FB818281813059F4EA81FB8180811D
:1033E000EA81FB819181692F40E00E94A50E15C002
:1033F000EA81FB818281882359F4EA81FB81808103
:10340000EA81FB819181692F41E00E94A50E05C0F0
:1034100083E08C8304C082E0898389818C838C81E2
:103420000F900F900F900F90CF91DF9108952F92F2
:103430003F924F925F926F927F928F929F92AF9244
:10344000BF92CF92DF92EF92FF920F931F93DF9381
:10345000CF93CDB7DEB7C354D0400FB6F894DEBFDC
:103460000FBECDBFFE01EE5BFF4F81E0808380E0A9
:1034700090E0A0E2B2E48DAB9EABAFABB8AF6DA96C
:103480007EA98FA998AD20E030E04AE753E40E947E
:103490001D03DC01CB0189AB9AABABABBCAB69A91B
:1034A0007AA98BA99CA920E030E040E85FE30E9464
:1034B000D70488232CF481E090E098AB8FA73FC01D
:1034C00069A97AA98BA99CA920E03FEF4FE757E4AF
:1034D0000E94770418164CF56DA97EA98FA998ADA6
:1034E00020E030E040E251E40E941D03DC01CB010A
:1034F000BC01CD010E944701DC01CB0198AB8FA735
:103500000FC089E190E09EA78DA78DA59EA501978C
:10351000F1F79EA78DA78FA598A9019798AB8FA7C4
:103520008FA598A9009769F714C069A97AA98BA9F2
:103530009CA90E944701DC01CB0198AB8FA78FA506
:1035400098A99CA78BA78BA59CA50197F1F79CA791
:103550008BA7FE01FA9610821182128213821482C6
:1035600015821682178282E060E041E00E94B90D68
:10357000282F30E040E050E060E070E080E090E034
:10358000DE01DA96FE01FA961081122B1C9311814E
:10359000132B11961C9311971281142B12961C93C6
:1035A00012971381152B13961C9313971481162BC6
:1035B00014961C9314971581172B15961C93159729
:1035C0001681182B16961C931697E7818E2F892B40
:1035D00017968C9382E061E041E00E94B90D882F3C
:1035E00090E0DC01AA0FBB1FAA0FBB1FAA0FBB1FD5
:1035F000FD01FF0FEE0BFE2F9D014E2F5E2F6E2F54
:103600007E2F8E2F9E2FDE01DA96FE01FA96108114
:10361000122B1C931181132B11961C93119712815D
:10362000142B12961C9312971381152B13961C932F
:1036300013971481162B14961C9314971581172B2E
:1036400015961C9315971681182B16961C93169792
:10365000E7818E2F892B17968C9382E062E041E000
:103660000E94B90D882F90E0DC010024B695A79543
:103670000794B695A7950794BA2FA02DFD01FF0FCB
:10368000EE0BFE2F9D014E2F5E2F6E2F7E2F8E2F65
:103690009E2FDE01DA96FE01FA961081122B1C9302
:1036A0001181132B11961C9311971281142B1296D2
:1036B0001C9312971381152B13961C931397148147
:1036C000162B14961C9314971581172B15961C9383
:1036D00015971681182B16961C931697E7818E2F37
:1036E000892B17968C9382E063E041E00E94B90D2C
:1036F000A82EBB24CC24DD24EE24FF2487012A2D10
:103700003B2D4C2D5D2D6E2D7F2D802F912F09E0AF
:103710000E94C800A22EB32EC42ED52EE62EF72E60
:10372000082F192F2A2D3B2D4C2D5D2D6E2D7F2D11
:10373000802F912FDE01DA96FE01FA961081122B6E
:103740001C931181132B11961C9311971281142B2A
:1037500012961C9312971381152B13961C93139793
:103760001481162B14961C9314971581172B1596FC
:103770001C9315971681182B16961C931697E781A4
:103780008E2F892B17968C9382E064E041E00E9493
:10379000B90DA82EBB24CC24DD24EE24FF24870100
:1037A0002A2D3B2D4C2D5D2D6E2D7F2D802F912FA1
:1037B0000CE00E94C800A22EB32EC42ED52EE62EF9
:1037C000F72E082F192F2A2D3B2D4C2D5D2D6E2DF8
:1037D0007F2D802F912FDE01DA96FE01FA9610815F
:1037E000122B1C931181132B11961C93119712818C
:1037F000142B12961C9312971381152B13961C935E
:1038000013971481162B14961C9314971581172B5C
:1038100015961C9315971681182B16961C931697C0
:10382000E7818E2F892B17968C9382E065E041E02B
:103830000E94B90DA82EBB24CC24DD24EE24FF2445
:1038400087012A2D3B2D4C2D5D2D6E2D7F2D802F38
:10385000912F0FE00E94C800A22EB32EC42ED52EA9
:10386000E62EF72E082F192F2A2D3B2D4C2D5D2DDE
:103870006E2D7F2D802F912FDE01DA96FE01FA96B4
:103880001081122B1C931181132B11961C931197ED
:103890001281142B12961C9312971381152B1396D9
:1038A0001C9313971481162B14961C93149715814F
:1038B000172B15961C9315971681182B16961C938B
:1038C0001697E7818E2F892B17968C9382E066E0FE
:1038D00041E00E94B90DA82EBB24CC24DD24EE24A7
:1038E000FF2487012A2D3B2D4C2D5D2D6E2D7F2D24
:1038F000802F912F02E10E94C800A22EB32EC42E69
:10390000D52EE62EF72E082F192F2A2D3B2D4C2DC4
:103910005D2D6E2D7F2D802F912FDE01DA96FE0119
:10392000FA961081122B1C931181132B11961C9364
:1039300011971281142B12961C9312971381152B39
:1039400013961C9313971481162B14961C9314979B
:103950001581172B15961C9315971681182B169603
:103960001C931697E7818E2F892B17968C9380E2F4
:103970000E94D824A82EBB24CC24DD24EE24FF24CE
:1039800087012A2D3B2D4C2D5D2D6E2D7F2D802FF7
:10399000912F05E10E94C800A22EB32EC42ED52E71
:1039A000E62EF72E082F192F2A2D3B2D4C2D5D2D9D
:1039B0006E2D7F2D802F912FDE01DA96FE01FA9673
:1039C0001081122B1C931181132B11961C931197AC
:1039D0001281142B12961C9312971381152B139698
:1039E0001C9313971481162B14961C93149715810E
:1039F000172B15961C9315971681182B16961C934A
:103A00001697E7818E2F892B17968C9380E20E9460
:103A1000D824A82EBB24CC24DD24EE24FF24870147
:103A20002A2D3B2D4C2D5D2D6E2D7F2D802F912F1E
:103A300008E10E94C800A22EB32EC42ED52EE62E79
:103A4000F72E082F192F2A2D3B2D4C2D5D2D6E2D75
:103A50007F2D802F912FDE01DA96FE01FA961081DC
:103A6000122B1C931181132B11961C931197128109
:103A7000142B12961C9312971381152B13961C93DB
:103A800013971481162B14961C9314971581172BDA
:103A900015961C9315971681182B16961C9316973E
:103AA000E7818E2F892B17968C9380E80E94D8246B
:103AB000A82EBB24CC24DD24EE24FF2487012A2D4C
:103AC0003B2D4C2D5D2D6E2D7F2D802F912F0BE1E9
:103AD0000E94C800A22EB32EC42ED52EE62EF72E9D
:103AE000082F192F2A2D3B2D4C2D5D2D6E2D7F2D4E
:103AF000802F912FDE01DA96FE01FA961081122BAB
:103B00001C931181132B11961C9311971281142B66
:103B100012961C9312971381152B13961C931397CF
:103B20001481162B14961C9314971581172B159638
:103B30001C9315971681182B16961C931697E781E0
:103B40008E2F892B17968C9380E090E0A0E8BFE33E
:103B50008FA398A7A9A7BAA76FA178A589A59AA5A9
:103B600020E030E04AE753E40E941D03DC01CB0172
:103B70008BA39CA3ADA3BEA36BA17CA18DA19EA191
:103B800020E030E040E85FE30E94D70488232CF473
:103B900081E090E09AA389A33FC06BA17CA18DA195
:103BA0009EA120E03FEF4FE757E40E9477041816EC
:103BB0004CF56FA178A589A59AA520E030E040E2F8
:103BC00051E40E941D03DC01CB01BC01CD010E9428
:103BD0004701DC01CB019AA389A30FC089E190E0E2
:103BE00098A38F8F8F8D98A10197F1F798A38F8F4E
:103BF00089A19AA101979AA389A389A19AA1009763
:103C000069F714C06BA17CA18DA19EA10E94470100
:103C1000DC01CB019AA389A389A19AA19E8F8D8FE4
:103C20008D8D9E8D0197F1F79E8F8D8F80E00E9484
:103C3000D824A82EBB24CC24DD24EE24FF24870125
:103C40002A2D3B2D4C2D5D2D6E2D7F2D802F912FFC
:103C50000EE10E94C800A22EB32EC42ED52EE62E51
:103C6000F72E082F192F2A2D3B2D4C2D5D2D6E2D53
:103C70007F2D802F912FDE01DA96FE01FA961081BA
:103C8000122B1C931181132B11961C9311971281E7
:103C9000142B12961C9312971381152B13961C93B9
:103CA00013971481162B14961C9314971581172BB8
:103CB00015961C9315971681182B16961C9316971C
:103CC000E7818E2F892B17968C9380EF0E94D82442
:103CD000A82EBB24CC24DD24EE24FF2487012A2D2A
:103CE0003B2D4C2D5D2D6E2D7F2D802F912F01E2D0
:103CF0000E94C800A22EB32EC42ED52EE62EF72E7B
:103D0000082F192F2A2D3B2D4C2D5D2D6E2D7F2D2B
:103D1000802F912FDE01DA96FE01FA961081122B88
:103D20001C931181132B11961C9311971281142B44
:103D300012961C9312971381152B13961C931397AD
:103D40001481162B14961C9314971581172B159616
:103D50001C9315971681182B16961C931697E781BE
:103D60008E2F892B17968C9380E090E0A0E8BFE31C
:103D7000898F9A8FAB8FBC8F698D7A8D8B8D9C8D3F
:103D800020E030E04AE753E40E941D03DC01CB0150
:103D90008D8B9E8BAF8BB88F6D897E898F89988D27
:103DA00020E030E040E85FE30E94D70488232CF451
:103DB00081E090E09C8B8B8B3FC06D897E898F89E1
:103DC000988D20E03FEF4FE757E40E9477041816E4
:103DD0004CF5698D7A8D8B8D9C8D20E030E040E232
:103DE00051E40E941D03DC01CB01BC01CD010E9406
:103DF0004701DC01CB019C8B8B8B0FC089E190E0EC
:103E00009A8B898B89899A890197F1F79A8B898B8B
:103E10008B899C8901979C8B8B8B8B899C890097C4
:103E200069F714C06D897E898F89988D0E9447013A
:103E3000DC01CB019C8B8B8B8B899C89988B8F872A
:103E40008F8598890197F1F7988B8F8780E00E9482
:103E5000D824A82EBB24CC24DD24EE24FF24870103
:103E60002A2D3B2D4C2D5D2D6E2D7F2D802F912FDA
:103E700004E20E94C800A22EB32EC42ED52EE62E38
:103E8000F72E082F192F2A2D3B2D4C2D5D2D6E2D31
:103E90007F2D802F912FDE01DA96FE01FA96108198
:103EA000122B1C931181132B11961C9311971281C5
:103EB000142B12961C9312971381152B13961C9397
:103EC00013971481162B14961C9314971581172B96
:103ED00015961C9315971681182B16961C931697FA
:103EE000E7818E2F892B17968C9380E10E94D8242E
:103EF000A82EBB24CC24DD24EE24FF2487012A2D08
:103F00003B2D4C2D5D2D6E2D7F2D802F912F07E2A7
:103F10000E94C800A22EB32EC42ED52EE62EF72E58
:103F2000082F192F2A2D3B2D4C2D5D2D6E2D7F2D09
:103F3000802F912FDE01DA96FE01FA961081122B66
:103F40001C931181132B11961C9311971281142B22
:103F500012961C9312971381152B13961C9313978B
:103F60001481162B14961C9314971581172B1596F4
:103F70001C9315971681182B16961C931697E7819C
:103F80008E2F892B17968C9380E090E0A0E0B0E410
:103F90008B879C87AD87BE876B857C858D859E854D
:103FA00020E030E04AE753E40E941D03DC01CB012E
:103FB0008F839887A987BA876F81788589859A8545
:103FC00020E030E040E85FE30E94D70488232CF42F
:103FD00081E090E09E838D833FC06F8178858985E5
:103FE0009A8520E03FEF4FE757E40E9477041816C8
:103FF0004CF56B857C858D859E8520E030E040E228
:1040000051E40E941D03DC01CB01BC01CD010E94E3
:104010004701DC01CB019E838D830FC089E190E0D5
:104020009C838B838B819C810197F1F79C838B838D
:104030008D819E8101979E838D838D819E810097C6
:1040400069F714C06F81788589859A850E94470138
:10405000DC01CB019E838D838D819E819A83898330
:1040600089819A810197F1F79A83898380E00E9480
:10407000D824A82EBB24CC24DD24EE24FF248701E1
:104080002A2D3B2D4C2D5D2D6E2D7F2D802F912FB8
:104090000AE20E94C800A22EB32EC42ED52EE62E10
:1040A000F72E082F192F2A2D3B2D4C2D5D2D6E2D0F
:1040B0007F2D802F912FDE01DA96FE01FA96108176
:1040C000122B1C931181132B11961C9311971281A3
:1040D000142B12961C9312971381152B13961C9375
:1040E00013971481162B14961C9314971581172B74
:1040F00015961C9315971681182B16961C931697D8
:10410000E7818E2F892B17968C9380E60E94D82406
:10411000A82EBB24CC24DD24EE24FF2487012A2DE5
:104120003B2D4C2D5D2D6E2D7F2D802F912F0DE27F
:104130000E94C800A22EB32EC42ED52EE62EF72E36
:10414000082F192F2A2D3B2D4C2D5D2D6E2D7F2DE7
:10415000802F912FDE01DA96FE01FA961081122B44
:104160001C931181132B11961C9311971281142B00
:1041700012961C9312971381152B13961C93139769
:104180001481162B14961C9314971581172B1596D2
:104190001C9315971681182B16961C931697E7817A
:1041A0008E2F892B17968C93179719AE42C089AD25
:1041B000A82FB0E0FE01FA9620813181428153811F
:1041C00064817581868197810A2F0E944900A22E01
:1041D000B32EC42ED52EE62EF72E082F192F2A2CFB
:1041E0003B2C4C2C5D2C6E2C7F2C802E912E222D66
:1041F0002770332D3070442D4070552D5070662D32
:104200006070772D7070882D8070992D9070E22FDE
:10421000E32BE42BE52BE62BE72BE82BE92BEE2316
:1042200029F081E024968FAF249715C089AD8D5F6A
:1042300089AF89AD8E3208F4BACF81E08093F00166
:10424000FE01EE5BFF4F1082FE01EE5BFF4F8081AF
:1042500024968FAF249724968FAD2497CD5BDF4FA4
:104260000FB6F894DEBF0FBECDBFCF91DF911F9187
:104270000F91FF90EF90DF90CF90BF90AF909F9005
:104280008F907F906F905F904F903F902F90089508
:10429000DF93CF93CDB7DEB7E2970FB6F894DEBFCA
:1042A0000FBECDBF89AB81E088AB1CA61DA61EA6A4
:1042B0001FA682E061E040E00E94A50E282F30E0BA
:1042C00040E050E08CA59DA5AEA5BFA5822B932B09
:1042D000A42BB52B8CA79DA7AEA7BFA782E062E059
:1042E00040E00E94A50E882F90E0880F991F880F4C
:1042F000991F880F991F9C01442737FD4095542F23
:104300008CA59DA5AEA5BFA5822B932BA42BB52B69
:104310008CA79DA7AEA7BFA789A982958F70982F5C
:10432000917082E063E0492F0E94A50E882F90E0F3
:104330000024969587950794969587950794982FCE
:10434000802D9C01442737FD4095542F8CA59DA5B9
:10435000AEA5BFA5822B932BA42BB52B8CA79DA715
:10436000AEA7BFA789A9829586958770982F91706F
:1043700082E064E0492F0E94A50E882F90E0A0E023
:10438000B0E09C01AD01012E19E0220F331F441F44
:10439000551F1A95D1F7102D8CA59DA5AEA5BFA5CB
:1043A000822B932BA42BB52B8CA79DA7AEA7BFA7C1
:1043B00089A98295869586958370982F917082E061
:1043C00065E0492F0E94A50E882F90E0A0E0B0E0A4
:1043D0009C01AD01012E1CE0220F331F441F551F0D
:1043E0001A95D1F7102D8CA59DA5AEA5BFA5822B42
:1043F000932BA42BB52B8CA79DA7AEA7BFA789A9EC
:10440000982F991F9927991F82E066E0492F0E94F3
:10441000A50E882F90E0A0E0B0E09C01AD01012E38
:104420001FE0220F331F441F551F1A95D1F7102D7F
:104430008CA59DA5AEA5BFA5822B932BA42BB52B38
:104440008CA79DA7AEA7BFA78091F001882309F490
:1044500081C182E062E041E00E94A50E80E090E030
:10446000A0E8BFE38FA398A7A9A7BAA76FA178A5D3
:1044700089A59AA520E030E04AE753E40E941D0395
:10448000DC01CB018BA39CA3ADA3BEA36BA17CA13C
:104490008DA19EA120E030E040E85FE30E94D704B8
:1044A00088232CF481E090E09AA389A33FC06BA1FC
:1044B0007CA18DA19EA120E03FEF4FE757E40E9431
:1044C000770418164CF56FA178A589A59AA520E068
:1044D00030E040E251E40E941D03DC01CB01BC014D
:1044E000CD010E944701DC01CB019AA389A30FC033
:1044F00089E190E098A38F8F8F8D98A10197F1F7B4
:1045000098A38F8F89A19AA101979AA389A389A1C2
:104510009AA1009769F714C06BA17CA18DA19EA1FF
:104520000E944701DC01CB019AA389A389A19AA12A
:104530009E8F8D8F8D8D9E8D0197F1F79E8F8D8F24
:1045400082E062E040E00E94A50E80E090E0A0E8FA
:10455000BFE3898F9A8FAB8FBC8F698D7A8D8B8DDE
:104560009C8D20E030E04AE753E40E941D03DC010B
:10457000CB018D8B9E8BAF8BB88F6D897E898F8998
:10458000988D20E030E040E85FE30E94D704882364
:104590002CF481E090E09C8B8B8B3FC06D897E89F1
:1045A0008F89988D20E03FEF4FE757E40E94770412
:1045B00018164CF5698D7A8D8B8D9C8D20E030E03E
:1045C00040E251E40E941D03DC01CB01BC01CD019E
:1045D0000E944701DC01CB019C8B8B8B0FC089E1D2
:1045E00090E09A8B898B89899A890197F1F79A8B48
:1045F000898B8B899C8901979C8B8B8B8B899C8960
:10460000009769F714C06D897E898F89988D0E9403
:104610004701DC01CB019C8B8B8B8B899C89988B10
:104620008F878F8598890197F1F7988B8F8789A954
:10463000982F917082E063E0492F0E94A50E882F89
:1046400090E0002496958795079496958795079412
:10465000982F802D9C01442737FD4095542F8CA521
:104660009DA5AEA5BFA5822B932BA42BB52B8CA704
:104670009DA7AEA7BFA789A98695982F917082E0C4
:1046800064E0492F0E94A50E882F90E0A0E0B0E0E2
:104690009C01AD01012E19E0220F331F441F551F4D
:1046A0001A95D1F7102D8CA59DA5AEA5BFA5822B7F
:1046B000932BA42BB52B8CA79DA7AEA7BFA789A929
:1046C00086958695982F917082E065E0492F0E942B
:1046D000A50E882F90E0A0E0B0E09C01AD01012E76
:1046E0001CE0220F331F441F551F1A95D1F7102DC0
:1046F0008CA59DA5AEA5BFA5822B932BA42BB52B76
:104700008CA79DA7AEA7BFA789A9869586958695F4
:10471000982F917082E066E0492F0E94A50E882FA5
:1047200090E0A0E0B0E09C01AD01012E1FE0220F5F
:10473000331F441F551F1A95D1F7102D8CA59DA529
:10474000AEA5BFA5822B932BA42BB52B8CA79DA721
:10475000AEA7BFA71BA61DC08BA5282F30E08CA538
:104760009DA5AEA5BFA5022E04C0B695A7959795A9
:1047700087950A94D2F787709070A070B0700097F8
:10478000A105B10519F081E08AAB85C08BA58D5FCD
:104790008BA78BA5803100F382E062E041E00E94AC
:1047A000A50E80E090E0A0E2B1E48B879C87AD8706
:1047B000BE876B857C858D859E8520E030E04AE74D
:1047C00053E40E941D03DC01CB018F839887A987E6
:1047D000BA876F81788589859A8520E030E040E846
:1047E0005FE30E94D70488232CF481E090E09E834D
:1047F0008D833FC06F81788589859A8520E03FEF62
:104800004FE757E40E94770418164CF56B857C85BA
:104810008D859E8520E030E040E251E40E941D033A
:10482000DC01CB01BC01CD010E944701DC01CB01C1
:104830009E838D830FC089E190E09C838B838B8165
:104840009C810197F1F79C838B838D819E810197D9
:104850009E838D838D819E81009769F714C06F813F
:10486000788589859A850E944701DC01CB019E836A
:104870008D838D819E819A83898389819A81019715
:10488000F1F79A83898382E062E040E00E94A50EFE
:1048900018AA88A98AAB8AA9E2960FB6F894DEBF57
:1048A0000FBECDBFCF91DF9108950F931F93DF937C
:1048B000CF9300D000D00F92CDB7DEB79C838B830F
:1048C00081E08A8382E060E041E00E94A50E8823B7
:1048D000F9F4198213C08981282F30E08B819C81E3
:1048E000FC01E20FF31F80810E944821882319F008
:1048F0008A818D8310C089818F5F89838981082F88
:1049000010E08B819C810E94E8300817190718F38A
:104910001A828A818D838D810F900F900F900F9056
:104920000F90CF91DF911F910F910895DF93CF9357
:1049300000D0CDB7DEB78A8381E0898382E060E072
:1049400041E00E94A50E882321F48A810E9448211B
:10495000898389810F900F90CF91DF910895DF9324
:10496000CF930F92CDB7DEB781E0898381E00E94BB
:10497000D824898389810F90CF91DF910895DF93A7
:10498000CF9300D0CDB7DEB78A8381E0898382E000
:1049900060E040E00E94A50E882321F48A810E94F5
:1049A0004821898389810F900F90CF91DF910895DD
:1049B000DF93CF9300D0CDB7DEB78A8381E08983C0
:1049C00082E060E040E00E94A50E882321F48A8105
:1049D0000E944821898389810F900F90CF91DF91A8
:1049E0000895DF93CF9300D000D000D0CDB7DEB7CD
:1049F0009C838B836D834E8381E08A8380E40E9455
:104A0000BF248A8319820EC08981282F30E08B81D0
:104A10009C81FC01E20FF31F80810E949624898112
:104A20008F5F89838981282F30E08D81882F90E0E6
:104A3000880F991F880F991F880F991F281739070A
:104A40001CF38E81883549F48FE80E94BF248A8345
:104A500084E00E94BF248A8305C08E81833611F0D2
:104A600083E08A831A828A8126960FB6F894DEBF85
:104A70000FBECDBFCF91DF910895DF93CF9300D0CC
:104A800000D0CDB7DEB78A836B8381E089838A81CA
:104A9000813031F48B8180580E94BF2489830CC0FF
:104AA0008A81823031F48B8180540E94BF248983B3
:104AB00003C083E08C8302C089818C838C810F903A
:104AC0000F900F900F90CF91DF9108950F931F9348
:104AD000DF93CF93CDB7DEB72F970FB6F894DEBF35
:104AE0000FBECDBF69877A878B879C8781E08887D7
:104AF00082E060E041E00E94A50E888769857A85A2
:104B00008B859C8520E030E040E050E00E94170457
:104B1000882339F480E30E944821888728852F87DD
:104B200065C18FEF8F8369857A858B859C850E940F
:104B30006505DC01CB018B839C83AD83BE836985D6
:104B40007A858B859C8520E030E040E050E00E9433
:104B5000D704882394F48DE20E9496248B819C8153
:104B6000AD81BE81B095A095909581959F4FAF4F37
:104B7000BF4F8B839C83AD83BE831E8669857A85F8
:104B80008B859C8520E030E040E85FE30E94D704FD
:104B9000882314F481E08E8781E09E85892788230D
:104BA00061F469857A858B859C8520E030E040E062
:104BB00050E00E947704181604F11D8669857A85F5
:104BC0008B859C8520E030E040E85FEB0E94770415
:104BD000181614F421E02D8781E09D85892788230C
:104BE000E1F569857A858B859C8520E030E040E0A1
:104BF00050E00E94D704882384F580E30E94962425
:104C00002CC08F818F5F8F838F81082F112707FD25
:104C100010958B819C81AD81BE812AE030E040E01F
:104C200050E0BC01CD010E947430DC01CB01F801E1
:104C3000E957FE4F80838B819C81AD81BE812AE044
:104C400030E040E050E0BC01CD010E947430DA0158
:104C5000C9018B839C83AD83BE838B819C81AD8195
:104C6000BE81181619061A061B069CF4888588232F
:104C700041F20FC08F81992787FD9095FC01E9577C
:104C8000FE4F8081805D0E94482188878F818150FE
:104C90008F838F8188231CF08885882359F3698549
:104CA0007A858B859C850E946505DC01CB01BC0162
:104CB000CD010E9407059B01AC0169857A858B8532
:104CC0009C850E94BF02DC01CB0189879A87AB8754
:104CD000BC8769857A858B859C8520E030E040E043
:104CE00050E00E944704882309F47EC08EE20E94AF
:104CF000482169857A858B859C8520E030E040E0FD
:104D000050E00E94D70488234CF489859A85AB85AE
:104D1000BC85B05889879A87AB87BC878AE090E0CA
:104D20009A83898344C08F818F5F8F838F81282FDF
:104D3000332727FD309583E090E08C01021B130B95
:104D400089819A81CC01A0E0B0E0BC01CD010E9434
:104D5000B905DC01CB01BC01CD0129853A854B8524
:104D60005C850E941D03DC01CB01BC01CD010E94CA
:104D70006505DC01CB012AE030E040E050E0BC01F9
:104D8000CD010E947430DC01CB01F801E957FE4FE0
:104D9000808389819A819C01220F331FC901880F6A
:104DA000991F880F991F820F931F9A838983898186
:104DB0009A8127E28131920708F4B5CF0FC08F8125
:104DC000992787FD9095FC01E957FE4F8081805D12
:104DD0000E94482188878F8181508F838F8188230B
:104DE0001CF08885882359F388858F878F852F96B7
:104DF0000FB6F894DEBF0FBECDBFCF91DF911F91EC
:104E00000F9108952F923F924F925F926F927F92EF
:104E10008F929F92AF92BF92CF92DF92EF92FF92CA
:104E20000F931F93DF93CF9300D00F92CDB7DEB7D0
:104E300081E08A8381E063E041E00E94B90D282E81
:104E4000332444245524662477244301A090F1019F
:104E5000B090F201C090F301D090F401E090F50120
:104E6000F090F6010091F7011091F801222D2A2906
:104E7000332D3B29442D4C29552D5D29662D6E2956
:104E8000772D7F29882D802B992D912B2093F1014F
:104E90003093F2014093F3015093F4016093F501D4
:104EA0007093F6018093F7019093F80181E064E03C
:104EB00041E00E94B90D882F90E09C01220F331F22
:104EC000220F331F220F331FC901990F880B982F10
:104ED0001901482E582E682E782E882E982EA090D4
:104EE000F101B090F201C090F301D090F401E09094
:104EF000F501F090F6010091F7011091F801222DD3
:104F00002A29332D3B29442D4C29552D5D29662D09
:104F10006E29772D7F29882D802B992D912B209319
:104F2000F1013093F2014093F3015093F401609347
:104F3000F5017093F6018093F7019093F80181E0F9
:104F400065E041E00E94B90D882F90E09C010024AB
:104F5000369527950794369527950794322F202D5F
:104F6000C901990F880B982F1901482E582E682EC9
:104F7000782E882E982EA090F101B090F201C0906A
:104F8000F301D090F401E090F501F090F60100916A
:104F9000F7011091F801222D2A29332D3B29442DA8
:104FA0004C29552D5D29662D6E29772D7F29882D59
:104FB000802B992D912B2093F1013093F201409396
:104FC000F3015093F4016093F5017093F60180931F
:104FD000F7019093F80181E066E041E00E94B90D8D
:104FE000A82EBB24CC24DD24EE24FF2487012A2D07
:104FF0003B2D4C2D5D2D6E2D7F2D802F912F09E0A7
:105000000E94C800A22EB32EC42ED52EE62EF72E57
:10501000082F192F2A2C3B2C4C2C5D2C6E2C7F2C0E
:10502000802E912EA090F101B090F201C090F3017A
:10503000D090F401E090F501F090F6010091F701B5
:105040001091F801222D2A29332D3B29442D4C297A
:10505000552D5D29662D6E29772D7F29882D802B72
:10506000992D912B2093F1013093F2014093F3019C
:105070005093F4016093F5017093F6018093F7016A
:105080009093F80181E067E041E00E94B90DA82EFD
:10509000BB24CC24DD24EE24FF2487012A2D3B2DC4
:1050A0004C2D5D2D6E2D7F2D802F912F0CE00E94B9
:1050B000C800A22EB32EC42ED52EE62EF72E082F12
:1050C000192F2A2C3B2C4C2C5D2C6E2C7F2C802EE7
:1050D000912EA090F101B090F201C090F301D09018
:1050E000F401E090F501F090F6010091F7011091C4
:1050F000F801222D2A29332D3B29442D4C29552DE9
:105100005D29662D6E29772D7F29882D802B992D7D
:10511000912B2093F1013093F2014093F3015093CE
:10512000F4016093F5017093F6018093F701909379
:10513000F80182E060E041E00E94B90DA82EBB2496
:10514000CC24DD24EE24FF2487012A2D3B2D4C2D79
:105150005D2D6E2D7F2D802F912F0FE00E94C800B6
:10516000A22EB32EC42ED52EE62EF72E082F192FE1
:105170002A2C3B2C4C2C5D2C6E2C7F2C802E912EBF
:10518000A090F101B090F201C090F301D090F40131
:10519000E090F501F090F6010091F7011091F8010F
:1051A000222D2A29332D3B29442D4C29552D5D29AB
:1051B000662D6E29772D7F29882D802B992D912B97
:1051C0002093F1013093F2014093F3015093F401E5
:1051D0006093F5017093F6018093F7019093F801C5
:1051E00082E061E041E00E94B90DA82EBB24CC24EE
:1051F000DD24EE24FF2487012A2D3B2D4C2D5D2D2F
:105200006E2D7F2D802F912F02E10E94C800A22ECB
:10521000B32EC42ED52EE62EF72E082F192F2A2CAA
:105220003B2C4C2C5D2C6E2C7F2C802E912EA09034
:10523000F101B090F201C090F301D090F401E09040
:10524000F501F090F6010091F7011091F801222D7F
:105250002A29332D3B29442D4C29552D5D29662DB6
:105260006E29772D7F29882D802B992D912B2093C6
:10527000F1013093F2014093F3015093F4016093F4
:10528000F5017093F6018093F7019093F80182E0A5
:1052900062E041E00E94B90DA82EBB24CC24DD249D
:1052A000EE24FF2487012A2D3B2D4C2D5D2D6E2DE4
:1052B0007F2D802F912F05E10E94C800A22EB32ED2
:1052C000C42ED52EE62EF72E082F192F2A2C3B2C74
:1052D0004C2C5D2C6E2C7F2C802E912EA090F101F9
:1052E000B090F201C090F301D090F401E090F5018C
:1052F000F090F6010091F7011091F801222D2A2972
:10530000332D3B29442D4C29552D5D29662D6E29C1
:10531000772D7F29882D802B992D912B2093F101BA
:105320003093F2014093F3015093F4016093F5013F
:105330007093F6018093F7019093F80182E063E0A7
:1053400041E00E94B90DA82EBB24CC24DD24EE241C
:10535000FF2487012A2D3B2D4C2D5D2D6E2D7F2D99
:10536000802F912F08E10E94C800A22EB32EC42ED8
:10537000D52EE62EF72E082F192F2A2C3B2C4C2C3D
:105380005D2C6E2C7F2C802E912EA090F101B09080
:10539000F201C090F301D090F401E090F501F0909B
:1053A000F6010091F7011091F801222D2A29332DE1
:1053B0003B29442D4C29552D5D29662D6E29772DCD
:1053C0007F29882D802B992D912B2093F1013093EB
:1053D000F2014093F3015093F4016093F50170934F
:1053E000F6018093F7019093F80182E064E041E0D8
:1053F0000E94B90DA82EBB24CC24DD24EE24FF246A
:1054000087012A2D3B2D4C2D5D2D6E2D7F2D802F5C
:10541000912F0BE10E94C800A22EB32EC42ED52ED0
:10542000E62EF72E082F192F2A2C3B2C4C2C5D2C06
:105430006E2C7F2C802E912EA090F101B090F20165
:10544000C090F301D090F401E090F501F090F601E6
:105450000091F7011091F801222D2A29332D3B29C3
:10546000442D4C29552D5D29662D6E29772D7F29D8
:10547000882D802B992D912B2093F1013093F201EF
:105480004093F3015093F4016093F5017093F6019A
:105490008093F7019093F80181E063E041E00E947E
:1054A000A50E81E064E041E00E94A50E81E065E088
:1054B00041E00E94A50E81E066E041E00E94A50E59
:1054C00081E067E041E00E94A50E82E060E041E0FB
:1054D0000E94A50E82E061E041E00E94A50E82E0FC
:1054E00062E041E00E94A50E82E063E041E00E949C
:1054F000A50E82E064E041E00E94A50E80E067E036
:1055000040E00E94B90DA82EBB24CC24DD24EE245B
:10551000FF2487012A2D3B2D4C2D5D2D6E2D7F2DD7
:10552000802F912F0EE10E94C800A22EB32EC42E10
:10553000D52EE62EF72E082F192F2A2C3B2C4C2C7B
:105540005D2C6E2C7F2C802E912EA090F101B090BE
:10555000F201C090F301D090F401E090F501F090D9
:10556000F6010091F7011091F801222D2A29332D1F
:105570003B29442D4C29552D5D29662D6E29772D0B
:105580007F29882D802B992D912B2093F101309329
:10559000F2014093F3015093F4016093F50170938D
:1055A000F6018093F7019093F80181E060E040E01C
:1055B0000E94B90DA82EBB24CC24DD24EE24FF24A8
:1055C00087012A2D3B2D4C2D5D2D6E2D7F2D802F9B
:1055D000912F01E20E94C800A22EB32EC42ED52E18
:1055E000E62EF72E082F192F2A2C3B2C4C2C5D2C45
:1055F0006E2C7F2C802E912EA090F101B090F201A4
:10560000C090F301D090F401E090F501F090F60124
:105610000091F7011091F801222D2A29332D3B2901
:10562000442D4C29552D5D29662D6E29772D7F2916
:10563000882D802B992D912B2093F1013093F2012D
:105640004093F3015093F4016093F5017093F601D8
:105650008093F7019093F80181E061E040E00E94BF
:10566000B90DA82EBB24CC24DD24EE24FF24870111
:105670002A2D3B2D4C2D5D2D6E2D7F2D802F912FB2
:1056800004E20E94C800A22EB32EC42ED52EE62E10
:10569000F72E082F192F2A2C3B2C4C2C5D2C6E2C0E
:1056A0007F2C802E912EA090F101B090F201C0903D
:1056B000F301D090F401E090F501F090F601009133
:1056C000F7011091F801222D2A29332D3B29442D71
:1056D0004C29552D5D29662D6E29772D7F29882D22
:1056E000802B992D912B2093F1013093F20140935F
:1056F000F3015093F4016093F5017093F6018093E8
:10570000F7019093F80181E062E040E00E94B90D5A
:10571000A82EBB24CC24DD24EE24FF2487012A2DCF
:105720003B2D4C2D5D2D6E2D7F2D802F912F07E26F
:105730000E94C800A22EB32EC42ED52EE62EF72E20
:10574000082F192F2A2C3B2C4C2C5D2C6E2C7F2CD7
:10575000802E912EA090F101B090F201C090F30143
:10576000D090F401E090F501F090F6010091F7017E
:105770001091F801222D2A29332D3B29442D4C2943
:10578000552D5D29662D6E29772D7F29882D802B3B
:10579000992D912B2093F1013093F2014093F30165
:1057A0005093F4016093F5017093F6018093F70133
:1057B0009093F80180E067E041E00E94A50E81E04F
:1057C00060E041E00E94A50E81E061E041E00E94BE
:1057D000A50E81E062E041E00E94A50E19824EC054
:1057E000A090F101B090F201C090F301D090F401CB
:1057F000E090F501F090F6010091F7011091F801A9
:105800008981E82FF0E02A2D3B2D4C2D5D2D6E2D4A
:105810007F2D802F912F0E2F0E944900A22EB32E94
:10582000C42ED52EE62EF72E082F192F2A2C3B2C0E
:105830004C2C5D2C6E2C7F2C802E912E222D2770CF
:10584000332D3070442D4070552D5070662D607092
:10585000772D7070882D8070992D9070E22FE32B3A
:10586000E42BE52BE62BE72BE82BE92BEE2319F0B5
:1058700081E08B830AC089818D5F89838981883229
:1058800008F4AECF1A828A818B838B810F900F90A0
:105890000F90CF91DF911F910F91FF90EF90DF90CC
:1058A000CF90BF90AF909F908F907F906F905F90C0
:1058B0004F903F902F900895DF93CF9300D000D06A
:1058C0000F92CDB7DEB79C838B8381E08A838FEF05
:1058D00089831092FA01ADC08091FA01882F90E07F
:1058E000880F991FFC01E956FE4F20818091FA0133
:1058F000882F90E0880F991FFC01E856FE4F908199
:10590000822F692F40E00E94A50E882319F08A811A
:105910008D839BC01092F90169C08091F901882F95
:1059200090E0880F991FFC01E555FE4F4081809162
:10593000F901882F90E0880F991FFC01E455FE4F74
:1059400090812B813C81842F692FA9010E94910FA6
:10595000882319F08A818D8378C0EB81FC81808156
:10596000882309F03EC01BC08091F901882F90E088
:10597000880F991FFC01E555FE4F40818091F90188
:10598000882F90E0880F991FFC01E455FE4F90810D
:105990002B813C81842F692FA9010E94910FEB81FB
:1059A000FC818081882301F38091F901282F30E068
:1059B0008091FA01482F50E0C901880F991F9C017E
:1059C000220F331F220F331F820F931F840F951F47
:1059D000FC01ED54FE4F8081EB81FC8180831D82B0
:1059E00034C08091F9018F5F8093F9018091F901B2
:1059F000843008F492CF8091FA01882F90E0880FCC
:105A0000991FFC01E956FE4F20818091FA01882FF1
:105A100090E0880F991FFC01E856FE4F9081822F7D
:105A2000692F41E00E94A50E8091FA018F5F80935B
:105A3000FA018091FA018A3008F44ECFEB81FC81A3
:105A4000898180831A828A818D838D810F900F9046
:105A50000F900F900F90CF91DF910895DF93CF9328
:105A6000CDB7DEB70E943F0C8BE791E00E945B1838
:105A70008EE691E00E9466130E94131488E691E07E
:105A80000E94430881E89DE260E00E946E0B0E9444
:105A9000270880E00E946C0ACF91DF910895DF9380
:105AA000CF93CDB7DEB78091DB01853019F40E942A
:105AB0005D2DF9CF0E946C2DF6CFDF93CF93CDB73C
:105AC000DEB70E94392F0E948A2D0E949F2E0E94CD
:105AD0008A2DCF91DF910895DF93CF93CDB7DEB7B5
